{
  "contractName": "FacialRecognition",
  "abi": [
    {
      "anonymous": false,
      "inputs": [
        {
          "indexed": true,
          "internalType": "address",
          "name": "user",
          "type": "address"
        },
        {
          "indexed": false,
          "internalType": "bytes32",
          "name": "hash",
          "type": "bytes32"
        }
      ],
      "name": "UserRegistered",
      "type": "event"
    },
    {
      "anonymous": false,
      "inputs": [
        {
          "indexed": true,
          "internalType": "address",
          "name": "user",
          "type": "address"
        },
        {
          "indexed": false,
          "internalType": "bool",
          "name": "success",
          "type": "bool"
        }
      ],
      "name": "UserVerified",
      "type": "event"
    },
    {
      "inputs": [
        {
          "internalType": "bytes32",
          "name": "hash",
          "type": "bytes32"
        }
      ],
      "name": "registerUser",
      "outputs": [],
      "stateMutability": "nonpayable",
      "type": "function"
    },
    {
      "inputs": [
        {
          "internalType": "bytes32",
          "name": "newHash",
          "type": "bytes32"
        }
      ],
      "name": "verifyUser",
      "outputs": [
        {
          "internalType": "bool",
          "name": "",
          "type": "bool"
        }
      ],
      "stateMutability": "nonpayable",
      "type": "function"
    }
  ],
  "bytecode": "0x608060405234801561000f575f80fd5b506102a38061001d5f395ff3fe608060405234801561000f575f80fd5b5060043610610034575f3560e01c80632dc03259146100385780636e67518b14610054575b5f80fd5b610052600480360381019061004d91906101e7565b610084565b005b61006e600480360381019061006991906101e7565b610116565b60405161007b919061022c565b60405180910390f35b805f803373ffffffffffffffffffffffffffffffffffffffff1673ffffffffffffffffffffffffffffffffffffffff1681526020019081526020015f20819055503373ffffffffffffffffffffffffffffffffffffffff167f4c5d15f5779ae1ecd7d55bd3283d898e29c35743d172bd7b83a16e17bc0afe2a8260405161010b9190610254565b60405180910390a250565b5f80825f803373ffffffffffffffffffffffffffffffffffffffff1673ffffffffffffffffffffffffffffffffffffffff1681526020019081526020015f20541490503373ffffffffffffffffffffffffffffffffffffffff167f34736af44d2b91cd43fa896d4cfe0861ec1e6b4538583d385fc671639e9153b28260405161019f919061022c565b60405180910390a280915050919050565b5f80fd5b5f819050919050565b6101c6816101b4565b81146101d0575f80fd5b50565b5f813590506101e1816101bd565b92915050565b5f602082840312156101fc576101fb6101b0565b5b5f610209848285016101d3565b91505092915050565b5f8115159050919050565b61022681610212565b82525050565b5f60208201905061023f5f83018461021d565b92915050565b61024e816101b4565b82525050565b5f6020820190506102675f830184610245565b9291505056fea264697066735822122069b4933af8916c2580edc22bcf212a54aa955efe897e3b10452cb2a8e4bdaf5e64736f6c63430008150033",
  "immutableReferences": {},
  "source": "// contracts/FacialRecognition.sol\r\n\r\n// SPDX-License-Identifier: MIT\r\npragma solidity ^0.8.0;\r\n\r\ncontract FacialRecognition {\r\n    mapping(address => bytes32) private userHashes;\r\n\r\n    // Event for logging registration\r\n    event UserRegistered(address indexed user, bytes32 hash);\r\n\r\n    // Event for logging verification\r\n    event UserVerified(address indexed user, bool success);\r\n\r\n    // Register a new user's facial data hash\r\n    function registerUser(bytes32 hash) public {\r\n        userHashes[msg.sender] = hash;\r\n        emit UserRegistered(msg.sender, hash);\r\n    }\r\n\r\n    // Verify a user's facial data hash\r\n    function verifyUser(bytes32 newHash) public returns (bool) {\r\n        bool isVerified = (userHashes[msg.sender] == newHash);\r\n        emit UserVerified(msg.sender, isVerified);\r\n        return isVerified;\r\n    }\r\n}\r\n",
  "sourcePath": "C:\\Users\\dsoha\\facial-recognition-blockchain\\contracts\\facialRecognition.sol",
  "compiler": {
    "name": "solc",
    "version": "0.8.21+commit.d9974bed.Emscripten.clang"
  },
  "schemaVersion": "3.4.16",
  "updatedAt": "2024-07-06T14:21:43.357Z",
  "devdoc": {
    "kind": "dev",
    "methods": {},
    "version": 1
  },
  "userdoc": {
    "kind": "user",
    "methods": {},
    "version": 1
  }
}